{"abi":[{"type":"constructor","inputs":[{"name":"initialMonthlyCap","type":"uint256","internalType":"uint256"}],"stateMutability":"nonpayable"},{"type":"function","name":"allowance","inputs":[{"name":"owner","type":"address","internalType":"address"},{"name":"spender","type":"address","internalType":"address"}],"outputs":[{"name":"","type":"uint256","internalType":"uint256"}],"stateMutability":"view"},{"type":"function","name":"approve","inputs":[{"name":"spender","type":"address","internalType":"address"},{"name":"value","type":"uint256","internalType":"uint256"}],"outputs":[{"name":"","type":"bool","internalType":"bool"}],"stateMutability":"nonpayable"},{"type":"function","name":"balanceOf","inputs":[{"name":"account","type":"address","internalType":"address"}],"outputs":[{"name":"","type":"uint256","internalType":"uint256"}],"stateMutability":"view"},{"type":"function","name":"currentWindowMinted","inputs":[],"outputs":[{"name":"","type":"uint256","internalType":"uint256"}],"stateMutability":"view"},{"type":"function","name":"decimals","inputs":[],"outputs":[{"name":"","type":"uint8","internalType":"uint8"}],"stateMutability":"view"},{"type":"function","name":"mint","inputs":[{"name":"to","type":"address","internalType":"address"},{"name":"amount","type":"uint256","internalType":"uint256"}],"outputs":[],"stateMutability":"nonpayable"},{"type":"function","name":"monthlyEmissionCap","inputs":[],"outputs":[{"name":"","type":"uint256","internalType":"uint256"}],"stateMutability":"view"},{"type":"function","name":"name","inputs":[],"outputs":[{"name":"","type":"string","internalType":"string"}],"stateMutability":"view"},{"type":"function","name":"owner","inputs":[],"outputs":[{"name":"","type":"address","internalType":"address"}],"stateMutability":"view"},{"type":"function","name":"remainingThisWindow","inputs":[],"outputs":[{"name":"","type":"uint256","internalType":"uint256"}],"stateMutability":"view"},{"type":"function","name":"renounceOwnership","inputs":[],"outputs":[],"stateMutability":"nonpayable"},{"type":"function","name":"setMonthlyEmissionCap","inputs":[{"name":"newCap","type":"uint256","internalType":"uint256"}],"outputs":[],"stateMutability":"nonpayable"},{"type":"function","name":"symbol","inputs":[],"outputs":[{"name":"","type":"string","internalType":"string"}],"stateMutability":"view"},{"type":"function","name":"totalSupply","inputs":[],"outputs":[{"name":"","type":"uint256","internalType":"uint256"}],"stateMutability":"view"},{"type":"function","name":"transfer","inputs":[{"name":"to","type":"address","internalType":"address"},{"name":"value","type":"uint256","internalType":"uint256"}],"outputs":[{"name":"","type":"bool","internalType":"bool"}],"stateMutability":"nonpayable"},{"type":"function","name":"transferFrom","inputs":[{"name":"from","type":"address","internalType":"address"},{"name":"to","type":"address","internalType":"address"},{"name":"value","type":"uint256","internalType":"uint256"}],"outputs":[{"name":"","type":"bool","internalType":"bool"}],"stateMutability":"nonpayable"},{"type":"function","name":"transferOwnership","inputs":[{"name":"newOwner","type":"address","internalType":"address"}],"outputs":[],"stateMutability":"nonpayable"},{"type":"function","name":"windowStart","inputs":[],"outputs":[{"name":"","type":"uint256","internalType":"uint256"}],"stateMutability":"view"},{"type":"event","name":"Approval","inputs":[{"name":"owner","type":"address","indexed":true,"internalType":"address"},{"name":"spender","type":"address","indexed":true,"internalType":"address"},{"name":"value","type":"uint256","indexed":false,"internalType":"uint256"}],"anonymous":false},{"type":"event","name":"Claimed","inputs":[{"name":"to","type":"address","indexed":true,"internalType":"address"},{"name":"amount","type":"uint256","indexed":false,"internalType":"uint256"}],"anonymous":false},{"type":"event","name":"EmissionCapUpdated","inputs":[{"name":"newCap","type":"uint256","indexed":false,"internalType":"uint256"}],"anonymous":false},{"type":"event","name":"OwnershipTransferred","inputs":[{"name":"previousOwner","type":"address","indexed":true,"internalType":"address"},{"name":"newOwner","type":"address","indexed":true,"internalType":"address"}],"anonymous":false},{"type":"event","name":"Transfer","inputs":[{"name":"from","type":"address","indexed":true,"internalType":"address"},{"name":"to","type":"address","indexed":true,"internalType":"address"},{"name":"value","type":"uint256","indexed":false,"internalType":"uint256"}],"anonymous":false},{"type":"error","name":"ERC20InsufficientAllowance","inputs":[{"name":"spender","type":"address","internalType":"address"},{"name":"allowance","type":"uint256","internalType":"uint256"},{"name":"needed","type":"uint256","internalType":"uint256"}]},{"type":"error","name":"ERC20InsufficientBalance","inputs":[{"name":"sender","type":"address","internalType":"address"},{"name":"balance","type":"uint256","internalType":"uint256"},{"name":"needed","type":"uint256","internalType":"uint256"}]},{"type":"error","name":"ERC20InvalidApprover","inputs":[{"name":"approver","type":"address","internalType":"address"}]},{"type":"error","name":"ERC20InvalidReceiver","inputs":[{"name":"receiver","type":"address","internalType":"address"}]},{"type":"error","name":"ERC20InvalidSender","inputs":[{"name":"sender","type":"address","internalType":"address"}]},{"type":"error","name":"ERC20InvalidSpender","inputs":[{"name":"spender","type":"address","internalType":"address"}]},{"type":"error","name":"OwnableInvalidOwner","inputs":[{"name":"owner","type":"address","internalType":"address"}]},{"type":"error","name":"OwnableUnauthorizedAccount","inputs":[{"name":"account","type":"address","internalType":"address"}]}],"bytecode":{"object":"0x608060405234801562000010575f80fd5b5060405162000d8338038062000d8383398101604081905262000033916200012d565b336040518060400160405280600981526020016820a7a8102a37b5b2b760b91b815250604051806040016040528060038152602001620414f560ec1b8152508160039081620000839190620001e3565b506004620000928282620001e3565b5050506001600160a01b038116620000c357604051631e4fbdf760e01b81525f600482015260240160405180910390fd5b620000ce81620000dc565b5060065542600855620002af565b600580546001600160a01b038381166001600160a01b0319831681179093556040519116919082907f8be0079c531659141344cd1fd0a4f28419497f9722a3daafe3b4186f6b6457e0905f90a35050565b5f602082840312156200013e575f80fd5b5051919050565b634e487b7160e01b5f52604160045260245ffd5b600181811c908216806200016e57607f821691505b6020821081036200018d57634e487b7160e01b5f52602260045260245ffd5b50919050565b601f821115620001de57805f5260205f20601f840160051c81016020851015620001ba5750805b601f840160051c820191505b81811015620001db575f8155600101620001c6565b50505b505050565b81516001600160401b03811115620001ff57620001ff62000145565b620002178162000210845462000159565b8462000193565b602080601f8311600181146200024d575f8415620002355750858301515b5f19600386901b1c1916600185901b178555620002a7565b5f85815260208120601f198616915b828110156200027d578886015182559484019460019091019084016200025c565b50858210156200029b57878501515f19600388901b60f8161c191681555b505060018460011b0185555b505050505050565b610ac680620002bd5f395ff3fe608060405234801561000f575f80fd5b5060043610610111575f3560e01c8063715018a61161009e578063b0c2783a1161006e578063b0c2783a14610216578063d224edd91461021f578063dd62ed3e14610228578063f2fde38b14610260578063f9f05fe114610273575f80fd5b8063715018a6146101d85780638da5cb5b146101e057806395d89b41146101fb578063a9059cbb14610203575f80fd5b8063313ce567116100e4578063313ce5671461017b5780633fc374831461018a57806340c10f1914610193578063656ef37a146101a857806370a08231146101b0575f80fd5b806306fdde0314610115578063095ea7b31461013357806318160ddd1461015657806323b872dd14610168575b5f80fd5b61011d610286565b60405161012a91906108ee565b60405180910390f35b610146610141366004610955565b610316565b604051901515815260200161012a565b6002545b60405190815260200161012a565b61014661017636600461097d565b61032f565b6040516012815260200161012a565b61015a60075481565b6101a66101a1366004610955565b610352565b005b61015a61043e565b61015a6101be3660046109b6565b6001600160a01b03165f9081526020819052604090205490565b6101a6610485565b6005546040516001600160a01b03909116815260200161012a565b61011d610498565b610146610211366004610955565b6104a7565b61015a60085481565b61015a60065481565b61015a6102363660046109d6565b6001600160a01b039182165f90815260016020908152604080832093909416825291909152205490565b6101a661026e3660046109b6565b6104b4565b6101a6610281366004610a07565b6104f1565b60606003805461029590610a1e565b80601f01602080910402602001604051908101604052809291908181526020018280546102c190610a1e565b801561030c5780601f106102e35761010080835404028352916020019161030c565b820191905f5260205f20905b8154815290600101906020018083116102ef57829003601f168201915b5050505050905090565b5f33610323818585610534565b60019150505b92915050565b5f3361033c858285610546565b6103478585856105c2565b506001949350505050565b61035a61061f565b61036261064c565b600654816007546103739190610a6a565b11156103d65760405162461bcd60e51b815260206004820152602760248201527f414f50546f6b656e3a206d6f6e74686c7920656d697373696f6e2063617020656044820152661e18d95959195960ca1b60648201526084015b60405180910390fd5b8060075f8282546103e79190610a6a565b909155506103f79050828261066d565b816001600160a01b03167fd8138f8a3f377c5259ca548e70e4c2de94f129f5a11036a15b69513cba2b426a8260405161043291815260200190565b60405180910390a25050565b5f62278d006008546104509190610a6a565b421061045d575060065490565b60075460065481101561047d57806006546104789190610a7d565b61047f565b5f5b91505090565b61048d61061f565b6104965f6106a5565b565b60606004805461029590610a1e565b5f336103238185856105c2565b6104bc61061f565b6001600160a01b0381166104e557604051631e4fbdf760e01b81525f60048201526024016103cd565b6104ee816106a5565b50565b6104f961061f565b60068190556040518181527f66787df316274074b5e4ff119207f9eb3c01322a3a1ea21a2e3a1ea64240cefc9060200160405180910390a150565b61054183838360016106f6565b505050565b6001600160a01b038381165f908152600160209081526040808320938616835292905220545f198110156105bc57818110156105ae57604051637dc7a0d960e11b81526001600160a01b038416600482015260248101829052604481018390526064016103cd565b6105bc84848484035f6106f6565b50505050565b6001600160a01b0383166105eb57604051634b637e8f60e11b81525f60048201526024016103cd565b6001600160a01b0382166106145760405163ec442f0560e01b81525f60048201526024016103cd565b6105418383836107c8565b6005546001600160a01b031633146104965760405163118cdaa760e01b81523360048201526024016103cd565b62278d0060085461065d9190610a6a565b421061049657426008555f600755565b6001600160a01b0382166106965760405163ec442f0560e01b81525f60048201526024016103cd565b6106a15f83836107c8565b5050565b600580546001600160a01b038381166001600160a01b0319831681179093556040519116919082907f8be0079c531659141344cd1fd0a4f28419497f9722a3daafe3b4186f6b6457e0905f90a35050565b6001600160a01b03841661071f5760405163e602df0560e01b81525f60048201526024016103cd565b6001600160a01b03831661074857604051634a1406b160e11b81525f60048201526024016103cd565b6001600160a01b038085165f90815260016020908152604080832093871683529290522082905580156105bc57826001600160a01b0316846001600160a01b03167f8c5be1e5ebec7d5bd14f71427d1e84f3dd0314c0f7b2291e5b200ac8c7c3b925846040516107ba91815260200190565b60405180910390a350505050565b6001600160a01b0383166107f2578060025f8282546107e79190610a6a565b909155506108629050565b6001600160a01b0383165f90815260208190526040902054818110156108445760405163391434e360e21b81526001600160a01b038516600482015260248101829052604481018390526064016103cd565b6001600160a01b0384165f9081526020819052604090209082900390555b6001600160a01b03821661087e5760028054829003905561089c565b6001600160a01b0382165f9081526020819052604090208054820190555b816001600160a01b0316836001600160a01b03167fddf252ad1be2c89b69c2b068fc378daa952ba7f163c4a11628f55a4df523b3ef836040516108e191815260200190565b60405180910390a3505050565b5f602080835283518060208501525f5b8181101561091a578581018301518582016040015282016108fe565b505f604082860101526040601f19601f8301168501019250505092915050565b80356001600160a01b0381168114610950575f80fd5b919050565b5f8060408385031215610966575f80fd5b61096f8361093a565b946020939093013593505050565b5f805f6060848603121561098f575f80fd5b6109988461093a565b92506109a66020850161093a565b9150604084013590509250925092565b5f602082840312156109c6575f80fd5b6109cf8261093a565b9392505050565b5f80604083850312156109e7575f80fd5b6109f08361093a565b91506109fe6020840161093a565b90509250929050565b5f60208284031215610a17575f80fd5b5035919050565b600181811c90821680610a3257607f821691505b602082108103610a5057634e487b7160e01b5f52602260045260245ffd5b50919050565b634e487b7160e01b5f52601160045260245ffd5b8082018082111561032957610329610a56565b8181038181111561032957610329610a5656fea26469706673582212201b786b4df4c09aba4a7785bdc1f17b456a9e03477ef841fc09d4639dc14aef2464736f6c63430008180033","linkReferences":{}},"methodIdentifiers":{"allowance(address,address)":"dd62ed3e","approve(address,uint256)":"095ea7b3","balanceOf(address)":"70a08231","currentWindowMinted()":"3fc37483","decimals()":"313ce567","mint(address,uint256)":"40c10f19","monthlyEmissionCap()":"d224edd9","name()":"06fdde03","owner()":"8da5cb5b","remainingThisWindow()":"656ef37a","renounceOwnership()":"715018a6","setMonthlyEmissionCap(uint256)":"f9f05fe1","symbol()":"95d89b41","totalSupply()":"18160ddd","transfer(address,uint256)":"a9059cbb","transferFrom(address,address,uint256)":"23b872dd","transferOwnership(address)":"f2fde38b","windowStart()":"b0c2783a"},"id":40}