{"abi":[{"type":"constructor","inputs":[],"stateMutability":"nonpayable"},{"type":"function","name":"commitPipelineHash","inputs":[{"name":"claimId","type":"bytes32","internalType":"bytes32"},{"name":"outputHash","type":"bytes32","internalType":"bytes32"},{"name":"agentCount","type":"uint32","internalType":"uint32"},{"name":"layerCount","type":"uint32","internalType":"uint32"}],"outputs":[],"stateMutability":"nonpayable"},{"type":"function","name":"isCommitted","inputs":[{"name":"claimId","type":"bytes32","internalType":"bytes32"}],"outputs":[{"name":"","type":"bool","internalType":"bool"}],"stateMutability":"view"},{"type":"function","name":"owner","inputs":[],"outputs":[{"name":"","type":"address","internalType":"address"}],"stateMutability":"view"},{"type":"function","name":"pipelineRecords","inputs":[{"name":"","type":"bytes32","internalType":"bytes32"}],"outputs":[{"name":"outputHash","type":"bytes32","internalType":"bytes32"},{"name":"committedAt","type":"uint256","internalType":"uint256"},{"name":"agentCount","type":"uint32","internalType":"uint32"},{"name":"layerCount","type":"uint32","internalType":"uint32"}],"stateMutability":"view"},{"type":"function","name":"renounceOwnership","inputs":[],"outputs":[],"stateMutability":"nonpayable"},{"type":"function","name":"totalCommitted","inputs":[],"outputs":[{"name":"","type":"uint256","internalType":"uint256"}],"stateMutability":"view"},{"type":"function","name":"transferOwnership","inputs":[{"name":"newOwner","type":"address","internalType":"address"}],"outputs":[],"stateMutability":"nonpayable"},{"type":"function","name":"verify","inputs":[{"name":"claimId","type":"bytes32","internalType":"bytes32"},{"name":"outputHash","type":"bytes32","internalType":"bytes32"}],"outputs":[{"name":"","type":"bool","internalType":"bool"}],"stateMutability":"view"},{"type":"event","name":"OwnershipTransferred","inputs":[{"name":"previousOwner","type":"address","indexed":true,"internalType":"address"},{"name":"newOwner","type":"address","indexed":true,"internalType":"address"}],"anonymous":false},{"type":"event","name":"PipelineCommitted","inputs":[{"name":"claimId","type":"bytes32","indexed":true,"internalType":"bytes32"},{"name":"outputHash","type":"bytes32","indexed":false,"internalType":"bytes32"},{"name":"agentCount","type":"uint32","indexed":false,"internalType":"uint32"},{"name":"layerCount","type":"uint32","indexed":false,"internalType":"uint32"},{"name":"committedAt","type":"uint256","indexed":false,"internalType":"uint256"}],"anonymous":false},{"type":"error","name":"OwnableInvalidOwner","inputs":[{"name":"owner","type":"address","internalType":"address"}]},{"type":"error","name":"OwnableUnauthorizedAccount","inputs":[{"name":"account","type":"address","internalType":"address"}]}],"bytecode":{"object":"0x608060405234801561000f575f80fd5b50338061003557604051631e4fbdf760e01b81525f600482015260240160405180910390fd5b61003e81610044565b50610093565b5f80546001600160a01b038381166001600160a01b0319831681178455604051919092169283917f8be0079c531659141344cd1fd0a4f28419497f9722a3daafe3b4186f6b6457e09190a35050565b610542806100a05f395ff3fe608060405234801561000f575f80fd5b5060043610610085575f3560e01c8063715018a611610058578063715018a6146101585780638da5cb5b146101625780638de4434b1461017c578063f2fde38b1461018f575f80fd5b8063054765a3146100895780631d3231d4146100c35780632b0d7aae146100da5780634e8fee0014610145575b5f80fd5b6100ae610097366004610429565b5f9081526001602081905260409091200154151590565b60405190151581526020015b60405180910390f35b6100cc60025481565b6040519081526020016100ba565b6101196100e8366004610429565b600160208190525f918252604090912080549181015460029091015463ffffffff8082169164010000000090041684565b60408051948552602085019390935263ffffffff918216928401929092521660608201526080016100ba565b6100ae610153366004610440565b6101a2565b6101606101cb565b005b5f546040516001600160a01b0390911681526020016100ba565b61016061018a366004610478565b6101de565b61016061019d3660046104bb565b610371565b5f828152600160208190526040822090810154158015906101c35750805483145b949350505050565b6101d36103ae565b6101dc5f6103da565b565b6101e66103ae565b5f84815260016020819052604090912001541561024a5760405162461bcd60e51b815260206004820152601e60248201527f414f5052656769737472793a20616c726561647920636f6d6d6974746564000060448201526064015b60405180910390fd5b826102975760405162461bcd60e51b815260206004820152601760248201527f414f5052656769737472793a20656d70747920686173680000000000000000006044820152606401610241565b6040805160808101825284815242602080830191825263ffffffff808716848601908152868216606086019081525f8b815260019485905296872095518655935192850192909255905160029384018054935183166401000000000267ffffffffffffffff199094169190921617919091179055805491610317836104e8565b90915550506040805184815263ffffffff8481166020830152831681830152426060820152905185917f95e487e7466e80ed67621be4f9883d9e6a4772b362e08cdc5f465147b47c4da4919081900360800190a250505050565b6103796103ae565b6001600160a01b0381166103a257604051631e4fbdf760e01b81525f6004820152602401610241565b6103ab816103da565b50565b5f546001600160a01b031633146101dc5760405163118cdaa760e01b8152336004820152602401610241565b5f80546001600160a01b038381166001600160a01b0319831681178455604051919092169283917f8be0079c531659141344cd1fd0a4f28419497f9722a3daafe3b4186f6b6457e09190a35050565b5f60208284031215610439575f80fd5b5035919050565b5f8060408385031215610451575f80fd5b50508035926020909101359150565b803563ffffffff81168114610473575f80fd5b919050565b5f805f806080858703121561048b575f80fd5b84359350602085013592506104a260408601610460565b91506104b060608601610460565b905092959194509250565b5f602082840312156104cb575f80fd5b81356001600160a01b03811681146104e1575f80fd5b9392505050565b5f6001820161050557634e487b7160e01b5f52601160045260245ffd5b506001019056fea264697066735822122036e97389b0fa4fc7b6ad039aa8a5e2759e30d6093b4abc7b98ecc3e1bfc0813864736f6c63430008180033","linkReferences":{}},"methodIdentifiers":{"commitPipelineHash(bytes32,bytes32,uint32,uint32)":"8de4434b","isCommitted(bytes32)":"054765a3","owner()":"8da5cb5b","pipelineRecords(bytes32)":"2b0d7aae","renounceOwnership()":"715018a6","totalCommitted()":"1d3231d4","transferOwnership(address)":"f2fde38b","verify(bytes32,bytes32)":"4e8fee00"},"id":39}