{"abi":[{"type":"constructor","inputs":[{"name":"baseURI","type":"string","internalType":"string"}],"stateMutability":"nonpayable"},{"type":"function","name":"approve","inputs":[{"name":"to","type":"address","internalType":"address"},{"name":"tokenId","type":"uint256","internalType":"uint256"}],"outputs":[],"stateMutability":"nonpayable"},{"type":"function","name":"balanceOf","inputs":[{"name":"owner","type":"address","internalType":"address"}],"outputs":[{"name":"","type":"uint256","internalType":"uint256"}],"stateMutability":"view"},{"type":"function","name":"getApproved","inputs":[{"name":"tokenId","type":"uint256","internalType":"uint256"}],"outputs":[{"name":"","type":"address","internalType":"address"}],"stateMutability":"view"},{"type":"function","name":"isApprovedForAll","inputs":[{"name":"owner","type":"address","internalType":"address"},{"name":"operator","type":"address","internalType":"address"}],"outputs":[{"name":"","type":"bool","internalType":"bool"}],"stateMutability":"view"},{"type":"function","name":"mint","inputs":[{"name":"to","type":"address","internalType":"address"}],"outputs":[{"name":"","type":"uint256","internalType":"uint256"}],"stateMutability":"nonpayable"},{"type":"function","name":"name","inputs":[],"outputs":[{"name":"","type":"string","internalType":"string"}],"stateMutability":"view"},{"type":"function","name":"owner","inputs":[],"outputs":[{"name":"","type":"address","internalType":"address"}],"stateMutability":"view"},{"type":"function","name":"ownerOf","inputs":[{"name":"tokenId","type":"uint256","internalType":"uint256"}],"outputs":[{"name":"","type":"address","internalType":"address"}],"stateMutability":"view"},{"type":"function","name":"renounceOwnership","inputs":[],"outputs":[],"stateMutability":"nonpayable"},{"type":"function","name":"safeTransferFrom","inputs":[{"name":"from","type":"address","internalType":"address"},{"name":"to","type":"address","internalType":"address"},{"name":"tokenId","type":"uint256","internalType":"uint256"}],"outputs":[],"stateMutability":"nonpayable"},{"type":"function","name":"safeTransferFrom","inputs":[{"name":"","type":"address","internalType":"address"},{"name":"","type":"address","internalType":"address"},{"name":"","type":"uint256","internalType":"uint256"},{"name":"","type":"bytes","internalType":"bytes"}],"outputs":[],"stateMutability":"pure"},{"type":"function","name":"setApprovalForAll","inputs":[{"name":"operator","type":"address","internalType":"address"},{"name":"approved","type":"bool","internalType":"bool"}],"outputs":[],"stateMutability":"nonpayable"},{"type":"function","name":"setBaseURI","inputs":[{"name":"newBaseURI","type":"string","internalType":"string"}],"outputs":[],"stateMutability":"nonpayable"},{"type":"function","name":"supportsInterface","inputs":[{"name":"interfaceId","type":"bytes4","internalType":"bytes4"}],"outputs":[{"name":"","type":"bool","internalType":"bool"}],"stateMutability":"view"},{"type":"function","name":"symbol","inputs":[],"outputs":[{"name":"","type":"string","internalType":"string"}],"stateMutability":"view"},{"type":"function","name":"tokenURI","inputs":[{"name":"tokenId","type":"uint256","internalType":"uint256"}],"outputs":[{"name":"","type":"string","internalType":"string"}],"stateMutability":"view"},{"type":"function","name":"totalMinted","inputs":[],"outputs":[{"name":"","type":"uint256","internalType":"uint256"}],"stateMutability":"view"},{"type":"function","name":"transferFrom","inputs":[{"name":"","type":"address","internalType":"address"},{"name":"","type":"address","internalType":"address"},{"name":"","type":"uint256","internalType":"uint256"}],"outputs":[],"stateMutability":"pure"},{"type":"function","name":"transferOwnership","inputs":[{"name":"newOwner","type":"address","internalType":"address"}],"outputs":[],"stateMutability":"nonpayable"},{"type":"event","name":"Approval","inputs":[{"name":"owner","type":"address","indexed":true,"internalType":"address"},{"name":"approved","type":"address","indexed":true,"internalType":"address"},{"name":"tokenId","type":"uint256","indexed":true,"internalType":"uint256"}],"anonymous":false},{"type":"event","name":"ApprovalForAll","inputs":[{"name":"owner","type":"address","indexed":true,"internalType":"address"},{"name":"operator","type":"address","indexed":true,"internalType":"address"},{"name":"approved","type":"bool","indexed":false,"internalType":"bool"}],"anonymous":false},{"type":"event","name":"BaseURIUpdated","inputs":[{"name":"newBaseURI","type":"string","indexed":false,"internalType":"string"}],"anonymous":false},{"type":"event","name":"Minted","inputs":[{"name":"to","type":"address","indexed":true,"internalType":"address"},{"name":"tokenId","type":"uint256","indexed":true,"internalType":"uint256"}],"anonymous":false},{"type":"event","name":"OwnershipTransferred","inputs":[{"name":"previousOwner","type":"address","indexed":true,"internalType":"address"},{"name":"newOwner","type":"address","indexed":true,"internalType":"address"}],"anonymous":false},{"type":"event","name":"Transfer","inputs":[{"name":"from","type":"address","indexed":true,"internalType":"address"},{"name":"to","type":"address","indexed":true,"internalType":"address"},{"name":"tokenId","type":"uint256","indexed":true,"internalType":"uint256"}],"anonymous":false},{"type":"error","name":"ERC721IncorrectOwner","inputs":[{"name":"sender","type":"address","internalType":"address"},{"name":"tokenId","type":"uint256","internalType":"uint256"},{"name":"owner","type":"address","internalType":"address"}]},{"type":"error","name":"ERC721InsufficientApproval","inputs":[{"name":"operator","type":"address","internalType":"address"},{"name":"tokenId","type":"uint256","internalType":"uint256"}]},{"type":"error","name":"ERC721InvalidApprover","inputs":[{"name":"approver","type":"address","internalType":"address"}]},{"type":"error","name":"ERC721InvalidOperator","inputs":[{"name":"operator","type":"address","internalType":"address"}]},{"type":"error","name":"ERC721InvalidOwner","inputs":[{"name":"owner","type":"address","internalType":"address"}]},{"type":"error","name":"ERC721InvalidReceiver","inputs":[{"name":"receiver","type":"address","internalType":"address"}]},{"type":"error","name":"ERC721InvalidSender","inputs":[{"name":"sender","type":"address","internalType":"address"}]},{"type":"error","name":"ERC721NonexistentToken","inputs":[{"name":"tokenId","type":"uint256","internalType":"uint256"}]},{"type":"error","name":"OwnableInvalidOwner","inputs":[{"name":"owner","type":"address","internalType":"address"}]},{"type":"error","name":"OwnableUnauthorizedAccount","inputs":[{"name":"account","type":"address","internalType":"address"}]}],"bytecode":{"object":"0x608060405234801562000010575f80fd5b50604051620014623803806200146283398101604081905262000033916200014a565b33604051806040016040528060098152602001681053d4081059d95b9d60ba1b81525060405180604001604052806004815260200163414f504160e01b815250815f9081620000839190620002a2565b506001620000928282620002a2565b5050506001600160a01b038116620000c357604051631e4fbdf760e01b81525f600482015260240160405180910390fd5b620000ce81620000e5565b506008620000dd8282620002a2565b50506200036e565b600680546001600160a01b038381166001600160a01b0319831681179093556040519116919082907f8be0079c531659141344cd1fd0a4f28419497f9722a3daafe3b4186f6b6457e0905f90a35050565b634e487b7160e01b5f52604160045260245ffd5b5f60208083850312156200015c575f80fd5b82516001600160401b038082111562000173575f80fd5b818501915085601f83011262000187575f80fd5b8151818111156200019c576200019c62000136565b604051601f8201601f19908116603f01168101908382118183101715620001c757620001c762000136565b816040528281528886848701011115620001df575f80fd5b5f93505b82841015620002025784840186015181850187015292850192620001e3565b5f86848301015280965050505050505092915050565b600181811c908216806200022d57607f821691505b6020821081036200024c57634e487b7160e01b5f52602260045260245ffd5b50919050565b601f8211156200029d57805f5260205f20601f840160051c81016020851015620002795750805b601f840160051c820191505b818110156200029a575f815560010162000285565b50505b505050565b81516001600160401b03811115620002be57620002be62000136565b620002d681620002cf845462000218565b8462000252565b602080601f8311600181146200030c575f8415620002f45750858301515b5f19600386901b1c1916600185901b17855562000366565b5f85815260208120601f198616915b828110156200033c578886015182559484019460019091019084016200031b565b50858210156200035a57878501515f19600388901b60f8161c191681555b505060018460011b0185555b505050505050565b6110e6806200037c5f395ff3fe608060405234801561000f575f80fd5b506004361061011c575f3560e01c806370a08231116100a9578063a2309ff81161006e578063a2309ff814610251578063b88d4fde14610259578063c87b56dd14610267578063e985e9c51461027a578063f2fde38b1461028d575f80fd5b806370a082311461020a578063715018a61461021d5780638da5cb5b1461022557806395d89b4114610236578063a22cb4651461023e575f80fd5b806323b872dd116100ef57806323b872dd1461019d57806342842e0e146101b057806355f804b3146101c35780636352211e146101d65780636a627842146101e9575f80fd5b806301ffc9a71461012057806306fdde0314610148578063081812fc1461015d578063095ea7b314610188575b5f80fd5b61013361012e366004610c12565b6102a0565b60405190151581526020015b60405180910390f35b6101506102f1565b60405161013f9190610c5b565b61017061016b366004610c8d565b610380565b6040516001600160a01b03909116815260200161013f565b61019b610196366004610cba565b6103a7565b005b61019b6101ab366004610ce2565b6103b6565b61019b6101be366004610ce2565b6103f9565b61019b6101d1366004610d1b565b610418565b6101706101e4366004610c8d565b61046b565b6101fc6101f7366004610d87565b610475565b60405190815260200161013f565b6101fc610218366004610d87565b6104db565b61019b610520565b6006546001600160a01b0316610170565b610150610533565b61019b61024c366004610da0565b610542565b6007546101fc565b61019b6101ab366004610ded565b610150610275366004610c8d565b61054d565b610133610288366004610ec2565b6105b2565b61019b61029b366004610d87565b6105df565b5f6001600160e01b031982166380ac58cd60e01b14806102d057506001600160e01b03198216635b5e139f60e01b145b806102eb57506301ffc9a760e01b6001600160e01b03198316145b92915050565b60605f80546102ff90610ef3565b80601f016020809104026020016040519081016040528092919081815260200182805461032b90610ef3565b80156103765780601f1061034d57610100808354040283529160200191610376565b820191905f5260205f20905b81548152906001019060200180831161035957829003601f168201915b5050505050905090565b5f61038a8261061c565b505f828152600460205260409020546001600160a01b03166102eb565b6103b2828233610654565b5050565b60405162461bcd60e51b81526020600482015260136024820152721059d95b9d14d0950e881cdbdd5b189bdd5b99606a1b60448201526064015b60405180910390fd5b61041383838360405180602001604052805f8152506103b6565b505050565b610420610661565b600861042d828483610f76565b507f6741b2fc379fad678116fe3d4d4b9a1a184ab53ba36b86ad0fa66340b1ab41ad828260405161045f929190611030565b60405180910390a15050565b5f6102eb8261061c565b5f61047e610661565b600780545f918261048e8361105e565b91905055905061049e838261068e565b60405181906001600160a01b038516907f30385c845b448a36257a6a1716e6ad2e1bc2cbe333cde1e69fe849ad6511adfe905f90a390505b919050565b5f6001600160a01b038216610505576040516322718ad960e21b81525f60048201526024016103f0565b506001600160a01b03165f9081526003602052604090205490565b610528610661565b6105315f6106ef565b565b6060600180546102ff90610ef3565b6103b2338383610740565b60606105588261061c565b505f6105626107de565b90505f8151116105805760405180602001604052805f8152506105ab565b8061058a846107ed565b60405160200161059b929190611082565b6040516020818303038152906040525b9392505050565b6001600160a01b039182165f90815260056020908152604080832093909416825291909152205460ff1690565b6105e7610661565b6001600160a01b03811661061057604051631e4fbdf760e01b81525f60048201526024016103f0565b610619816106ef565b50565b5f818152600260205260408120546001600160a01b0316806102eb57604051637e27328960e01b8152600481018490526024016103f0565b610413838383600161087d565b6006546001600160a01b031633146105315760405163118cdaa760e01b81523360048201526024016103f0565b6001600160a01b0382166106b757604051633250574960e11b81525f60048201526024016103f0565b5f6106c383835f610981565b90506001600160a01b03811615610413576040516339e3563760e11b81525f60048201526024016103f0565b600680546001600160a01b038381166001600160a01b0319831681179093556040519116919082907f8be0079c531659141344cd1fd0a4f28419497f9722a3daafe3b4186f6b6457e0905f90a35050565b6001600160a01b03821661077257604051630b61174360e31b81526001600160a01b03831660048201526024016103f0565b6001600160a01b038381165f81815260056020908152604080832094871680845294825291829020805460ff191686151590811790915591519182527f17307eab39ab6107e8899845ad3d59bd9653f200f220920489ca2b5937696c31910160405180910390a3505050565b6060600880546102ff90610ef3565b60605f6107f983610a73565b60010190505f8167ffffffffffffffff81111561081857610818610dd9565b6040519080825280601f01601f191660200182016040528015610842576020820181803683370190505b5090508181016020015b5f19016f181899199a1a9b1b9c1cb0b131b232b360811b600a86061a8153600a850494508461084c57509392505050565b808061089157506001600160a01b03821615155b15610952575f6108a08461061c565b90506001600160a01b038316158015906108cc5750826001600160a01b0316816001600160a01b031614155b80156108df57506108dd81846105b2565b155b156109085760405163a9fbf51f60e01b81526001600160a01b03841660048201526024016103f0565b81156109505783856001600160a01b0316826001600160a01b03167f8c5be1e5ebec7d5bd14f71427d1e84f3dd0314c0f7b2291e5b200ac8c7c3b92560405160405180910390a45b505b50505f90815260046020526040902080546001600160a01b0319166001600160a01b0392909216919091179055565b5f828152600260205260408120546001600160a01b03908116908316156109ad576109ad818486610b4a565b6001600160a01b038116156109e7576109c85f855f8061087d565b6001600160a01b0381165f90815260036020526040902080545f190190555b6001600160a01b03851615610a15576001600160a01b0385165f908152600360205260409020805460010190555b5f8481526002602052604080822080546001600160a01b0319166001600160a01b0389811691821790925591518793918516917fddf252ad1be2c89b69c2b068fc378daa952ba7f163c4a11628f55a4df523b3ef91a4949350505050565b5f8072184f03e93ff9f4daa797ed6e38ed64bf6a1f0160401b8310610ab15772184f03e93ff9f4daa797ed6e38ed64bf6a1f0160401b830492506040015b6d04ee2d6d415b85acef81000000008310610add576d04ee2d6d415b85acef8100000000830492506020015b662386f26fc100008310610afb57662386f26fc10000830492506010015b6305f5e1008310610b13576305f5e100830492506008015b6127108310610b2757612710830492506004015b60648310610b39576064830492506002015b600a83106102eb5760010192915050565b610b55838383610bae565b610413576001600160a01b038316610b8357604051637e27328960e01b8152600481018290526024016103f0565b60405163177e802f60e01b81526001600160a01b0383166004820152602481018290526044016103f0565b5f6001600160a01b03831615801590610c0a5750826001600160a01b0316846001600160a01b03161480610be75750610be784846105b2565b80610c0a57505f828152600460205260409020546001600160a01b038481169116145b949350505050565b5f60208284031215610c22575f80fd5b81356001600160e01b0319811681146105ab575f80fd5b5f5b83811015610c53578181015183820152602001610c3b565b50505f910152565b602081525f8251806020840152610c79816040850160208701610c39565b601f01601f19169190910160400192915050565b5f60208284031215610c9d575f80fd5b5035919050565b80356001600160a01b03811681146104d6575f80fd5b5f8060408385031215610ccb575f80fd5b610cd483610ca4565b946020939093013593505050565b5f805f60608486031215610cf4575f80fd5b610cfd84610ca4565b9250610d0b60208501610ca4565b9150604084013590509250925092565b5f8060208385031215610d2c575f80fd5b823567ffffffffffffffff80821115610d43575f80fd5b818501915085601f830112610d56575f80fd5b813581811115610d64575f80fd5b866020828501011115610d75575f80fd5b60209290920196919550909350505050565b5f60208284031215610d97575f80fd5b6105ab82610ca4565b5f8060408385031215610db1575f80fd5b610dba83610ca4565b915060208301358015158114610dce575f80fd5b809150509250929050565b634e487b7160e01b5f52604160045260245ffd5b5f805f8060808587031215610e00575f80fd5b610e0985610ca4565b9350610e1760208601610ca4565b925060408501359150606085013567ffffffffffffffff80821115610e3a575f80fd5b818701915087601f830112610e4d575f80fd5b813581811115610e5f57610e5f610dd9565b604051601f8201601f19908116603f01168101908382118183101715610e8757610e87610dd9565b816040528281528a6020848701011115610e9f575f80fd5b826020860160208301375f60208483010152809550505050505092959194509250565b5f8060408385031215610ed3575f80fd5b610edc83610ca4565b9150610eea60208401610ca4565b90509250929050565b600181811c90821680610f0757607f821691505b602082108103610f2557634e487b7160e01b5f52602260045260245ffd5b50919050565b601f82111561041357805f5260205f20601f840160051c81016020851015610f505750805b601f840160051c820191505b81811015610f6f575f8155600101610f5c565b5050505050565b67ffffffffffffffff831115610f8e57610f8e610dd9565b610fa283610f9c8354610ef3565b83610f2b565b5f601f841160018114610fd3575f8515610fbc5750838201355b5f19600387901b1c1916600186901b178355610f6f565b5f83815260208120601f198716915b828110156110025786850135825560209485019460019092019101610fe2565b508682101561101e575f1960f88860031b161c19848701351681555b505060018560011b0183555050505050565b60208152816020820152818360408301375f818301604090810191909152601f909201601f19160101919050565b5f6001820161107b57634e487b7160e01b5f52601160045260245ffd5b5060010190565b5f8351611093818460208801610c39565b8351908301906110a7818360208801610c39565b0194935050505056fea2646970667358221220a9fbc41350c0778b9ed2b5a26c3b3fade378321621123e5e98015e0b13fbf96a64736f6c63430008180033","linkReferences":{}},"methodIdentifiers":{"approve(address,uint256)":"095ea7b3","balanceOf(address)":"70a08231","getApproved(uint256)":"081812fc","isApprovedForAll(address,address)":"e985e9c5","mint(address)":"6a627842","name()":"06fdde03","owner()":"8da5cb5b","ownerOf(uint256)":"6352211e","renounceOwnership()":"715018a6","safeTransferFrom(address,address,uint256)":"42842e0e","safeTransferFrom(address,address,uint256,bytes)":"b88d4fde","setApprovalForAll(address,bool)":"a22cb465","setBaseURI(string)":"55f804b3","supportsInterface(bytes4)":"01ffc9a7","symbol()":"95d89b41","tokenURI(uint256)":"c87b56dd","totalMinted()":"a2309ff8","transferFrom(address,address,uint256)":"23b872dd","transferOwnership(address)":"f2fde38b"},"id":41}